{
    "_format": "hh-sol-artifact-1",
    "contractName": "Transfers",
    "sourceName": "contracts/Transfers.sol",
    "abi": [
        {
            "anonymous": false,
            "inputs": [
                {
                    "indexed": false,
                    "internalType": "address",
                    "name": "from",
                    "type": "address"
                },
                {
                    "indexed": false,
                    "internalType": "address",
                    "name": "to",
                    "type": "address"
                },
                {
                    "indexed": false,
                    "internalType": "string",
                    "name": "message",
                    "type": "string"
                },
                {
                    "indexed": false,
                    "internalType": "string",
                    "name": "ipfsHash",
                    "type": "string"
                }
            ],
            "name": "newDataAdded",
            "type": "event"
        },
        {
            "inputs": [
                {
                    "internalType": "address payable",
                    "name": "to",
                    "type": "address"
                },
                {
                    "internalType": "string",
                    "name": "message",
                    "type": "string"
                },
                {
                    "internalType": "string",
                    "name": "ipfsHash",
                    "type": "string"
                }
            ],
            "name": "addData",
            "outputs": [],
            "stateMutability": "nonpayable",
            "type": "function"
        },
        {
            "inputs": [],
            "name": "getData",
            "outputs": [
                {
                    "components": [
                        {
                            "internalType": "address",
                            "name": "from",
                            "type": "address"
                        },
                        {
                            "internalType": "string",
                            "name": "message",
                            "type": "string"
                        },
                        {
                            "internalType": "string",
                            "name": "ipfsHash",
                            "type": "string"
                        }
                    ],
                    "internalType": "struct Transfers.Data[]",
                    "name": "",
                    "type": "tuple[]"
                }
            ],
            "stateMutability": "view",
            "type": "function"
        }
    ],
    "bytecode": "0x608060405234801561001057600080fd5b506109f1806100206000396000f3fe608060405234801561001057600080fd5b50600436106100365760003560e01c80633bc5de301461003b5780637731d02e14610059575b600080fd5b610043610075565b604051610050919061075e565b60405180910390f35b610073600480360381019061006e919061050d565b61028a565b005b60606000803373ffffffffffffffffffffffffffffffffffffffff1673ffffffffffffffffffffffffffffffffffffffff168152602001908152602001600020805480602002602001604051908101604052809291908181526020016000905b8282101561028157838290600052602060002090600302016040518060600160405290816000820160009054906101000a900473ffffffffffffffffffffffffffffffffffffffff1673ffffffffffffffffffffffffffffffffffffffff1673ffffffffffffffffffffffffffffffffffffffff16815260200160018201805461015e90610903565b80601f016020809104026020016040519081016040528092919081815260200182805461018a90610903565b80156101d75780601f106101ac576101008083540402835291602001916101d7565b820191906000526020600020905b8154815290600101906020018083116101ba57829003601f168201915b505050505081526020016002820180546101f090610903565b80601f016020809104026020016040519081016040528092919081815260200182805461021c90610903565b80156102695780601f1061023e57610100808354040283529160200191610269565b820191906000526020600020905b81548152906001019060200180831161024c57829003601f168201915b505050505081525050815260200190600101906100d5565b50505050905090565b600060405180606001604052803373ffffffffffffffffffffffffffffffffffffffff1681526020018481526020018381525090506000808573ffffffffffffffffffffffffffffffffffffffff1673ffffffffffffffffffffffffffffffffffffffff16815260200190815260200160002081908060018154018082558091505060019003906000526020600020906003020160009091909190915060008201518160000160006101000a81548173ffffffffffffffffffffffffffffffffffffffff021916908373ffffffffffffffffffffffffffffffffffffffff160217905550602082015181600101908051906020019061038a9291906103ed565b5060408201518160020190805190602001906103a79291906103ed565b5050507f64c06d7a105c5d8ed69912158d3e139a67eba3c6dce607fb12d144e5b964528a338585856040516103df949392919061070b565b60405180910390a150505050565b8280546103f990610903565b90600052602060002090601f01602090048101928261041b5760008555610462565b82601f1061043457805160ff1916838001178555610462565b82800160010185558215610462579182015b82811115610461578251825591602001919060010190610446565b5b50905061046f9190610473565b5090565b5b8082111561048c576000816000905550600101610474565b5090565b60006104a361049e846107b1565b610780565b9050828152602081018484840111156104bb57600080fd5b6104c68482856108c1565b509392505050565b6000813590506104dd816109a4565b92915050565b600082601f8301126104f457600080fd5b8135610504848260208601610490565b91505092915050565b60008060006060848603121561052257600080fd5b6000610530868287016104ce565b935050602084013567ffffffffffffffff81111561054d57600080fd5b610559868287016104e3565b925050604084013567ffffffffffffffff81111561057657600080fd5b610582868287016104e3565b9150509250925092565b600061059883836106b4565b905092915050565b6105a98161088b565b82525050565b6105b881610847565b82525050565b6105c781610847565b82525050565b60006105d8826107f1565b6105e28185610814565b9350836020820285016105f4856107e1565b8060005b858110156106305784840389528151610611858261058c565b945061061c83610807565b925060208a019950506001810190506105f8565b50829750879550505050505092915050565b600061064d826107fc565b6106578185610825565b93506106678185602086016108d0565b61067081610993565b840191505092915050565b6000610686826107fc565b6106908185610836565b93506106a08185602086016108d0565b6106a981610993565b840191505092915050565b60006060830160008301516106cc60008601826105af565b50602083015184820360208601526106e48282610642565b915050604083015184820360408601526106fe8282610642565b9150508091505092915050565b600060808201905061072060008301876105be565b61072d60208301866105a0565b818103604083015261073f818561067b565b90508181036060830152610753818461067b565b905095945050505050565b6000602082019050818103600083015261077881846105cd565b905092915050565b6000604051905081810181811067ffffffffffffffff821117156107a7576107a6610964565b5b8060405250919050565b600067ffffffffffffffff8211156107cc576107cb610964565b5b601f19601f8301169050602081019050919050565b6000819050602082019050919050565b600081519050919050565b600081519050919050565b6000602082019050919050565b600082825260208201905092915050565b600082825260208201905092915050565b600082825260208201905092915050565b60006108528261086b565b9050919050565b60006108648261086b565b9050919050565b600073ffffffffffffffffffffffffffffffffffffffff82169050919050565b60006108968261089d565b9050919050565b60006108a8826108af565b9050919050565b60006108ba8261086b565b9050919050565b82818337600083830152505050565b60005b838110156108ee5780820151818401526020810190506108d3565b838111156108fd576000848401525b50505050565b6000600282049050600182168061091b57607f821691505b6020821081141561092f5761092e610935565b5b50919050565b7f4e487b7100000000000000000000000000000000000000000000000000000000600052602260045260246000fd5b7f4e487b7100000000000000000000000000000000000000000000000000000000600052604160045260246000fd5b6000601f19601f8301169050919050565b6109ad81610859565b81146109b857600080fd5b5056fea26469706673582212203112566177cd3b404aaf80f560d89feb3d88b5cd09f203862ad3312057d7409164736f6c63430008000033",
    "linkReferences": {},
    "deployedLinkReferences": {}
}